:020000040800F2
:1000000058090020890C0008D9030008DB03000808
:10001000DF030008E3030008E70300080000000016
:10002000000000000000000000000000EB030008DA
:10003000ED03000800000000EF030008F1030008D2
:10004000A30C0008A30C0008A30C0008A30C0008D4
:10005000A30C0008A30C0008A30C0008A30C0008C4
:10006000A30C0008A30C0008A30C0008A30C0008B4
:10007000A30C0008A30C0008A30C0008A30C0008A4
:10008000A30C0008A30C0008A30C0008A30C000894
:10009000A30C0008A30C0008A30C0008A30C000884
:1000A000A30C0008A30C0008A30C0008A30C000874
:1000B000390C0008A30C000869410008A30C0008D3
:1000C000A30C0008A30C0008A30C0008A30C000854
:1000D000A30C00083F400008F3030008A30C00082D
:1000E000A30C0008A30C0008A30C000800F002F801
:1000F00000F05CF80AA090E8000C82448344AAF166
:100100000107DA4501D100F051F8AFF2090EBAE863
:100110000F0013F0010F18BFFB1A43F0010318473B
:10012000BC450000DC4500000A444FF0000C10F80C
:10013000013B13F0070408BF10F8014B1D1108BF65
:1001400010F8015B641E05D010F8016B641E01F805
:10015000016BF9D113F0080F1EBF10F8014BAD1C55
:100160000C1B09D16D1E58BF01F801CBFAD505E073
:1001700014F8016B01F8016B6D1EF9D59142D6D3CD
:10018000704700000023002400250026103A28BFF5
:1001900078C1FBD8520728BF30C148BF0B607047F9
:1001A0001FB504F03FF91FBD10B510BD04F0D0F825
:1001B0001146FFF7F5FF00F009F804F0EEF803B47C
:1001C000FFF7F2FF03BC04F0B5F8000008B500F03B
:1001D000ADFC00F03BFA00F0BDFC044600204FF4FB
:1001E000165301222146009002F07CFD00F0F5FA42
:1001F00000F00CFC00F0D0FC00F0F0FC02F02FFE50
:1002000006E002F051FE00F07DFB6D4800F07AFC44
:10021000F7E730B5034600200DB2002D19DB8D182D
:10022000082D16DC674D2D884D1B2CB20EE0664D57
:1002300035F814502D1203F8015B634D35F8145056
:1002400003F8015B651C2CB2551EAAB2002AEEDC35
:1002500000E0012030BDF0B504460D4600202EB26E
:10026000002E34DBAE18092E31DC584E3688AE1B1A
:1002700031B213B1012B29D112E00EE0504E36F805
:100280001160361204F8016B4D4E36F8116004F817
:10029000016B4E1C31B2561EB2B2002AEEDC15E0E4
:1002A00011E014F8017B3E02454F27F8116014F865
:1002B000016B37F811703E43414F27F811604E1C17
:1002C00031B2561EB2B2002AEBDC00BF00E00120C2
:1002D000F0BD2DE9F04705460E46904699464FF091
:1002E000000A0FFA88F430B2002836DB06EB08006B
:1002F000102832DC304607B2B9F1000F03D0B9F153
:10030000010F29D115E011E0082C01DD082000E0E3
:100310002046C2B2B9B22E4803F0BAFB05F8010B71
:10032000A4F1080004B207F1080007B2002CEBDCCE
:1003300012E00EE015F8013B082C01DD082000E07A
:100340002046C2B2B9B2224803F06EFBA4F1080005
:1003500004B2002CEEDC00BF01E04FF0010A504671
:10036000BDE8F0872DE9F04705460C4616464FF0EC
:10037000000937B220B200281CDBA019102819DCB4
:1003800020461FFA80F812E0082F01DD082000E067
:100390003846C2B241460F4803F07AFB05F8010B1C
:1003A000A7F1080007B208F108001FFA80F8002F33
:1003B000EADC01E04FF001094846BDE8F0870000A3
:1003C0001200002010000020000000202400002067
:1003D0002600002028000020704700BFFEE700BF75
:1003E000FEE700BFFEE700BFFEE7704770477047BB
:1003F000704710B540F225511B4802F07CF8B0B1AF
:10040000194801F0F8FFC1B218480478601C174A77
:10041000107017480155104600781649097888422F
:1004200005D1002240F225510F4801F07CFF40F237
:1004300027710D4802F05FF8A8B10F480478601CDE
:100440000D4A10700D48015D074801F0D0FF0A48C1
:1004500000780B490978884205D1002240F22771C3
:10046000014801F060FF10BD004400404100002041
:1004700080010020430000204000002040010020B7
:100480004200002000210020674A126842F48032B6
:10049000654B1A6000BF644A126802F40030491CC0
:1004A00010B9B1F5A06FF6D15F4A126812F4003F9F
:1004B00001D0012000E00020012842D15B4A1268EF
:1004C00042F01002594B1A601A46126822F00302D9
:1004D0001A601A46126842F002021A60524A5268C2
:1004E000514B5A601A4652685A601A46526842F492
:1004F00080625A601A46526822F47C125A601A4688
:10050000526842F4E8125A601A46126842F0807249
:100510001A6000BF444A126812F0007FFAD0424AC3
:10052000526822F00302404B5A601A46526842F069
:1005300002025A6000BF3C4A526802F00C02082ACC
:10054000F9D1704710B5FFF79DFF10BD10B53648C3
:10055000006840F0010034490860084640683449AA
:1005600008403149486008460068324908402E4931
:1005700008600846006820F480200860084640684B
:1005800020F4FE0048604FF41F008860FFF7DAFF98
:100590004FF000602849086010BD10B50021002010
:1005A0000022214B5B6803F00C0121B1042906D025
:1005B000082928D107E0214B214C236027E01F4B5D
:1005C0001F4C236023E0184B5B6803F47010164B3C
:1005D0005B6803F48032022303EB904022B9194B8D
:1005E0004343174C23600DE00F4B5B6813F4003F4F
:1005F00004D0144B4343124C236003E00F4B43439E
:100600000F4C236003E00D4B0D4C236000BF00BF77
:10061000054B5B68C3F303130B4CE15C084B1B6891
:10062000CB40074C236010BD001002400020024068
:100630000000FFF8FFFFF6FE08ED00E000127A0070
:100640002C00002000093D003000002000B587B0DC
:100650000121052000F04CFE0121480400F055FE68
:100660000420ADF8180003208DF81A0018208DF82A
:100670001B0006A9DA4800F087FB0820ADF8180037
:1006800003208DF81A0004208DF81B0006A9D44819
:1006900000F07AFB4FF4C06001F070FF26208DF867
:1006A000040000208DF8050001208DF806008DF86B
:1006B000070001A801F067FF4FF4165002900020D8
:1006C000ADF80C00ADF80E00ADF81000ADF8140058
:1006D0000C20ADF8120002A9C24801F08CFD0022E6
:1006E00040F22551BF4801F01EFE002240F2277162
:1006F000BC4801F018FE0121BA4801F008FE07B01D
:1007000000BD10B5B84C012240F22551B54801F0AA
:100710000AFE012240F22771B24801F004FE00BF38
:10072000B2480078B2490978884202DA601E0400B3
:10073000F6D110BD2DE9F04105460E4617464FF0A3
:1007400000080020AB4908700878411CA94A1170C4
:10075000A9490D5411460878411C1170A6490E5440
:1007600011460878411C1170A3490F540822A14971
:100770000878411C9F4B19709F490A54084600781D
:10078000497848409C49897848409B49C97880EA23
:10079000010819460878411C1A461170964901F85B
:1007A00000801046007895490870002011460870B6
:1007B00001208F49087000208C490870FFF7A1FFC5
:1007C0008F480078892801D1002400E0012400200E
:1007D0008B4908702046BDE8F08110B50024002048
:1007E00088498880FF200881002048811420888162
:1007F0000020C881088208468088C2B208468088E6
:1008000001120220FFF796FF04461CB97D4880883C
:100810007D4988807B480089C1B208220420FFF707
:1008200089FF04461CB977480089774908817548D3
:100830004089C1B208220520FFF77CFF04461CB99D
:1008400070484089704948816E488089C1B2082249
:100850000620FFF76FFF04461CB96A4880896A4981
:1008600088816848C089C1B208220720FFF762FF6B
:1008700004461CB96348C0896349C8816148008A3D
:10088000C1B208221046FFF755FF04461CB95D4867
:10089000008A5D49088210BD10B55A480089C1B26E
:1008A00008220420FFF746FF04461CB9554800897A
:1008B0005549088153484089C1B208220520FFF7F5
:1008C00039FF04461CB94F4840894F4948814D487B
:1008D000C089C1B208220720FFF72CFF04461CB9CB
:1008E0004848C0894849C8814648008AC1B20822A0
:1008F0001046FFF71FFF04461CB94248008A4249D0
:10090000088210BD10B5404880883E4989888842D9
:1009100010D03C488088C2B23A4880880112022038
:10092000FFF708FF04461CB936488088364988809E
:10093000FFF7B2FF3448008932490989884201D063
:10094000FFF7AAFF304840892E49498988420CD0D8
:100950002C484089C1B208220520FFF7EBFE04466F
:100960001CB9284840892849488127488089254959
:10097000898988420CD023488089C1B20822062088
:10098000FFF7D8FE04461CB91E4880891E4988819D
:100990001D48C0891B49C98988420CD01948C089A3
:1009A000C1B208220720FFF7C5FE04461CB915484E
:1009B000C0891549C8811448008A1249098A8842A9
:1009C0000CD01048008AC1B208221046FFF7B2FED0
:1009D00004461CB90B48008A0B49088210BD000070
:1009E0000008014000440040803801004100002020
:1009F0004300002040000020400100204200002071
:100A00008001002012000020C001002000B591B03C
:100A10004FF4804000F0D3FB0121084600F05BFC5E
:100A200001214FF4017000F063FC0220ADF80000DA
:100A300000208DF803006946384800F0A5F93848D1
:100A400001F00AFE374801903748029000200390D9
:100A5000012004900020059006904FF480700790CC
:100A6000800008902020099000020A9000200B903E
:100A700001A92B4801F092FE0121294801F0B9FE9D
:100A800000200C9001208DF834008DF835004FF4D3
:100A900060200E9000200F9001208DF840000CA9DE
:100AA00020484C3801F027FF0523012211461D483C
:100AB0004C3801F0B8FF01211A484C3801F052FFC0
:100AC000012118484C3801F042FF16484C3801F01B
:100AD00060FF00BF13484C3801F060FF0028F9D1D7
:100AE00010484C3801F064FF00BF0E484C3801F04C
:100AF00064FF0028F9D101210A484C3801F067FF52
:100B000011B000BD084A1288A2F5876202EB82028A
:100B10005200242392FBF3F101807047000801404A
:100B2000080002404C2401404400002008B5012187
:100B3000082000F0DDFB4FF47060ADF800000320EA
:100B40008DF8020004208DF803006946114800F07A
:100B50001BF908BD70B500244FF400610D4800F08A
:100B6000A4F9C5004FF480610A4800F09EF945EAF7
:100B700080054FF40071074800F097F945EA4005F9
:100B80004FF48071034800F090F90543ECB2204621
:100B900070BD0000000C014008B50121042000F0E8
:100BA000A7FB0120ADF8000003208DF80200102003
:100BB0008DF803006946084800F0E6F808BD10B556
:100BC0000121054800F08DF910BD10B50121024842
:100BD00000F085F910BD0000000801401FB501219B
:100BE000084600F092FB1C208DF80C0000208DF8C8
:100BF0000D0001208DF80E008DF80F0003A801F004
:100C0000C2FC4FF47A70ADF804004720ADF8000044
:100C10000020ADF80600ADF8020069464FF08040B4
:100C200000F0A2FC01221146900700F0F2FF012122
:100C3000880700F0C9FF1FBD10B50121880701F02A
:100C400082FAE8B10121880701F08EFA0D480068A8
:100C5000401C0C490860084600684FF47A71B0FBEC
:100C6000F1F020B1FFF7ABFF00200649086005480E
:100C700000684FF4FA71B0FBF1F008B1FFF7A5FF7F
:100C800010BD00004800002009488047094800477F
:100C9000FEE7FEE7FEE7FEE7FEE7FEE7FEE7FEE72C
:100CA000FEE7FEE704480549054A064B7047000089
:100CB0004D050008ED0000085803002058090020E9
:100CC000580500205805002010B50446CA48844243
:100CD00008D10121042000F025FB0021042000F0B0
:100CE00021FB46E0C548844208D10121082000F0DC
:100CF00019FB0021082000F015FB3AE0C0488442AF
:100D000008D10121102000F00DFB0021102000F07F
:100D100009FB2EE0BB48844208D10121202000F0CD
:100D200001FB0021202000F0FDFA22E0B6488442B9
:100D300008D10121402000F0F5FA0021402000F008
:100D4000F1FA16E0B148844208D10121802000F078
:100D5000E9FA0021802000F0E5FA0AE0AC4884427C
:100D600007D10121801500F0DDFA0021A01500F067
:100D7000D9FA10BD10B50121084600F0D3FA0021C0
:100D8000012000F0CFFA10BD2DE9F0410246002508
:100D90000026002000230024002791F803C00CF057
:100DA0000F0591F803C01CF0100F03D091F802C09A
:100DB0004CEA0505B1F800C01CF0FF0F31D01468F3
:100DC00000202BE04FF0010C0CFA00F3B1F800C04A
:100DD0000CEA03069E4220D183004FF00F0C0CFA60
:100DE00003F7BC4305FA03FC4CEA040491F803C082
:100DF000BCF1280F06D14FF0010C0CFA00FCC2F830
:100E000014C00AE091F803C0BCF1480F05D14FF0BF
:100E1000010C0CFA00FCC2F810C0401C0828D1D309
:100E20001460B1F800C0BCF1FF0F34DD546800203D
:100E30002EE000F1080C4FF0010808FA0CF3B1F8AD
:100E400000C00CEA03069E4221D183004FF00F0C34
:100E50000CFA03F7BC4305FA03FC4CEA040491F8CE
:100E600003C0BCF1280F05D100F1080C08FA0CF8FA
:100E7000C2F8148091F803C0BCF1480F07D100F10B
:100E8000080C4FF0010808FA0CF8C2F81080401C5A
:100E90000828CED35460BDE8F0814FF6FF71018081
:100EA000022181700421C1707047024600209368BE
:100EB0000B4201D0012000E0002070470146886805
:100EC00080B2704702460020D3680B4201D0012057
:100ED00000E0002070470146C86880B27047016199
:100EE0007047416170470AB1016100E0416170479C
:100EF000C16070474FF480320A4382618161826130
:100F000082698269704702460020424B18684FF69A
:100F10008073184040EA021008433E4B1860704747
:100F20003D49C8617047F0B50A46002300240021FE
:100F3000002500F00046B6F1004F02D1354EF169B0
:100F400001E0344E7168C0F3034583B200F44016EB
:100F5000B6F5401F08D121F070612E4E766826F05C
:100F600070662C4F7E6012E000F48016B6F5801F8C
:100F700006D1032606FA05F4A14341F0706106E0AC
:100F8000460D360103FA06F6B14341F0706122B115
:100F9000460D360103FA06F6314300F00046B6F17D
:100FA000004F02D11B4EF16101E01A4E7160F0BD9D
:100FB00030B500228B071C0F0F2303FA04F2154BE8
:100FC00008338C1053F824309343124C08348D109E
:100FD00044F8253023468C1053F824308C07240F16
:100FE00000FA04F423430B4C08348D1044F82530E8
:100FF00030BD0A490860704700080140000C0140FC
:10100000001001400014014000180140001C014084
:10101000002001400000014000002042DC0020428E
:10102000DC48006840F00100DA4908600846406882
:10103000D9490840D749486008460068D749084060
:10104000D44908600846006820F4802008600846FB
:10105000406820F4FE0048604FF41F00886070472D
:10106000CC49096821F48031CA4A116011460968E7
:1010700021F480211160B0F5803F03D0B0F5802FBE
:101080000ED106E0C349096841F48031C14A1160BC
:1010900007E0C049096841F4A021BE4A116000E0A0
:1010A00000BF00BF704710B501460022002300209A
:1010B0004A11012A02D1B74C236806E0022A02D164
:1010C000B44C236A01E0B34C636A01F01F020124AF
:1010D00094401C4201D0012000E0002010BD70B5FA
:1010E00000240025002600BF3120FFF7DCFF064664
:1010F000641CB4F5A06F01D0002EF5D03120FFF7AD
:10110000D2FF08B1012500E00025284670BD014648
:101110000020A04A106820F0F80040EAC1001060EA
:1011200070479F490860704702460020994B5868F5
:1011300020F47C1042EA01031843964B5860704734
:1011400097490866704701460020924A506820F08F
:1011500003000843506070478E48406800F00C0060
:101160007047014600208B4A506820F0F000084389
:101170005060704701460020864A506820F4E060C5
:1011800008435060704701460020824A506820F4AE
:10119000605040EAC1005060704729B17D4A527AE0
:1011A00002437C4B5A7206E07A4A527AC343DBB25E
:1011B0001A40784B5A7270477A4908607047014666
:1011C0000020744A506820F4404008435060704743
:1011D0000021754A11706F4A82F82010012802D050
:1011E000042808D103E001216F4A117004E00521B1
:1011F0006D4A117000E000BF00BF70476B49086086
:1012000070476449096A0143624A1162704767493D
:1012100044390860704730B50021002200240023C3
:101220005C4D6D6805F00C0121B1042905D0082939
:1012300023D105E05E4D056022E05D4D05601FE0B5
:10124000544D6D6805F47012524D6D6805F480348C
:10125000022505EB92421CB9564D554305600BE043
:101260004C4D6D6815F4003F03D0524D5543056059
:1012700002E04F4D5543056002E04D4D056000BF53
:1012800000BF444D6D6805F0F00109094A4D6B5CE3
:101290000568DD4045603F4D6D6805F4E061090A71
:1012A000454D6B5C4568DD4085603A4D6D6805F4E1
:1012B0006051C90A404D6B5C4568DD40C560354DE5
:1012C0006D6805F44041890B3C4D6B5CC568B5FB0E
:1012D000F3F5056130BD29B12E4A526902432D4B09
:1012E0005A6104E02B4A526982432A4B5A61704783
:1012F00029B1284A92690243264B9A6104E0254AA3
:1013000092698243234B9A61704729B1214AD2697D
:101310000243204BDA6104E01E4AD26982431D4B2E
:10132000DA61704729B11B4AD2680243194BDA606F
:1013300004E0184AD2688243164BDA60704729B13C
:10134000144A12690243134B1A6104E0114A1269EC
:101350008243104B1A617047144940390860704746
:101360000F49C86470470B49C87170470948406A03
:1013700040F0807007494862704701460020054AE6
:1013800092680A4201D0012000E000207047014924
:1013900088727047001002400000FFF8FFFFF6FE61
:1013A00000004242D80042422010024080044242E3
:1013B00000127A0000093D004C0000205C00002073
:1013C00010B50446FE48844208D10121C014FFF73D
:1013D000A9FF0021E014FFF7A5FFC4E0B4F1804F9E
:1013E00008D101210846FFF7AAFF00210120FFF7DD
:1013F000A6FFB8E0F348844208D101210220FFF79C
:101400009EFF00210220FFF79AFFACE0EE488442E5
:1014100008D101210420FFF792FF00210420FFF7EB
:101420008EFFA0E0E948844208D101210820FFF79F
:1014300086FF00210820FFF782FF94E0E448844201
:1014400008D101211020FFF77AFF00211020FFF7BB
:1014500076FF88E0DF48844208D101212020FFF791
:101460006EFF00212020FFF76AFF7CE0DA4884420B
:1014700008D101214014FFF755FF00216014FFF748
:1014800051FF70E0D548844209D10121C804FFF71B
:1014900049FF00214FF40020FFF744FF63E0D048EC
:1014A000844209D101210805FFF73CFF00214FF4D8
:1014B0008010FFF737FF56E0CA48844209D1012166
:1014C0004805FFF72FFF00214FF40010FFF72AFF18
:1014D00049E0C548844208D101214020FFF72FFF91
:1014E00000214020FFF72BFF3DE0C048844208D197
:1014F00001218020FFF723FF00218020FFF71FFF3D
:1015000031E0BB48844208D101218015FFF717FF65
:101510000021A015FFF713FF25E0B648844209D14A
:1015200001210804FFF7FEFE00214FF48030FFF791
:10153000F9FE18E0B048844209D101214804FFF7C0
:10154000F1FE00214FF40030FFF7ECFE0BE0AB485A
:10155000844208D101218804FFF7E4FE00214FF402
:101560008020FFF7DFFE10BD00220288944B9842D6
:101570000ED0994B98420BD0B0F1804F08D0914BD0
:10158000984205D0904B984202D0904B984204D19B
:101590004FF68F731A404B881A438D4B984207D0F1
:1015A0008C4B984204D04FF6FF431A40CB881A4325
:1015B00002808B8883850B880385814B98420BD0F2
:1015C000854B984208D08B4B984205D08A4B984265
:1015D00002D08A4B984201D10B7A03860123838281
:1015E000704770B5002400220023058C4FF6FE766C
:1015F00035400584028C8388048B4FF68F752C4010
:10160000B51E2C400D882C43751E2A400D892A4397
:101610004D882A436A4DA8420BD06F4DA84208D08E
:10162000744DA84205D0744DA84202D0734DA84213
:1016300013D14FF6F7752A404D892A434FF6FB75B3
:101640002A408D882A434FF6FF652B404FF6FF5501
:101650002B408D892B43CD892B4383800483CD88F8
:101660008586028470BD70B5002400220023058C9D
:101670004FF6EF7635400584028C8388048B48F65C
:10168000FF752C404FF6FF452C400D882D0644EA8F
:1016900015444FF6DF752A400D892D0542EA1542A3
:1016A0004D882D0542EA1542454DA84202D04A4DCB
:1016B000A8421BD14FF67F752A404D892D0542EA7D
:1016C00015424FF6BF752A408D882D0542EA154216
:1016D0004FF6FF352B404FF2FF752B408D89AD043F
:1016E00043EA1543CD89AD0443EA1543838004835F
:1016F000CD880587028470BD70B5002400220023C8
:10170000058C4FF6FF6635400584028C8388848BF8
:101710004FF68F752C404FF6FC752C400D882C43EE
:101720004FF6FF552A400D892D0642EA15424D8895
:101730002D0642EA1542224DA84202D0264DA8426B
:101740001BD14FF2FF752A404D892D0642EA154202
:101750004FF6FF352A408D882D0642EA15424EF697
:10176000FF752B404DF6FF752B408D892D0543EA03
:101770001543CD892D0543EA154383808483CD88A5
:101780008587028470BD70B5002200230024058C7B
:101790004EF6FF7635400584038C8488828B48F6AC
:1017A000FF752A404FF6FF452A400D882D0642EA74
:1017B00015424DF6FF752B400D892D0720E00000E6
:1017C000002C01400004004000080040000C0040D4
:1017D000001000400014004000340140004C014063
:1017E000005001400054014000180040001C00401F
:1017F00000200040004001400044014000480140FA
:1018000043EA15434D882D0743EA1543F84DA84296
:1018100002D0F84DA84206D14BF6FF752C408D89B9
:10182000AD0544EA154484808283CD88A0F84050F9
:10183000038470BD828B4FF2FF331A408283828B08
:101840000B0642EA134282837047F0B50C461546F8
:10185000002200210026078C4EF6FF7C07EA0C07C9
:101860000784828B018C27073E0C40F6FF473A40E5
:101870002F0642EA17421F0742EA1742DC4FB842DE
:101880000ED0DC4FB8420BD0B0F1804F08D0DA4F09
:10189000B84205D0D94FB84202D0D94FB84206D18C
:1018A0004DF6FF77394046F48057394305E047F657
:1018B000FF57394044F48057394382830184F0BD97
:1018C000828B4FF6F3731A408283828B0A438283A2
:1018D0007047F0B50C461546002200210026078C03
:1018E0004FF6FF6C07EA0C070784828B018C2706F2
:1018F0003E0C4FF60C773A401F0545EA17473A432E
:10190000BB4FB8420ED0BB4FB8420BD0B0F1804FA6
:1019100008D0B94FB84205D0B84FB84202D0B84F3E
:10192000B84206D14FF6FF57394046F48077394325
:1019300005E04FF2FF57394044F480773943828302
:101940000184F0BD028B4FF2FF331A400283028BF9
:101950000B0642EA134202837047F0B50C46154667
:10196000002200210026078C4FF6EF7C07EA0C07C7
:101970000784028B018C27053E0C40F6FF473A4056
:101980001F0742EA17422F0642EA1742984FB84211
:101990000ED0984FB8420BD0B0F1804F08D0964F80
:1019A000B84205D0954FB84202D0954FB84206D103
:1019B0004FF6DF77394046F01007394305E04FF620
:1019C0005F77394044F01007394302830184F0BD4A
:1019D000028B4FF6F3731A400283028B0A43028391
:1019E0007047F0B50C46154600220021068C4FF6D4
:1019F000FE773E400684028B018C4FF60C76324017
:101A00001E0545EA16463243794EB0420ED0794E55
:101A1000B0420BD0B0F1804F08D0774EB04205D025
:101A2000764EB04202D0764EB04206D14FF6FD76E9
:101A3000314044F00106314305E04FF6F576314080
:101A400044F00106314302830184F0BD70B50546C0
:101A50000C46674885420ED0664885420BD0B5F1EA
:101A6000804F08D06448854205D06448854202D042
:101A70006348854200D100E000BF208850B9238927
:101A8000A28861882846FFF7ACFFE1882846FFF767
:101A90009FFF25E0208804280AD12389A288618835
:101AA0002846FFF75AFFE1882846FFF74BFF17E06B
:101AB000208808280AD12389A28861882846FFF750
:101AC00008FFE1882846FFF7FBFE09E02389A2888A
:101AD00061882846FFF7B9FEE1882846FFF7AAFE8D
:101AE00070BD2DE9F04105460C46002601276088AF
:101AF00008B9022600E00026A088012801D10227AB
:101B000000E001272088A0B92389A288618828469F
:101B1000FFF767FFE1882846FFF75AFF23893A4617
:101B200031462846FFF719FFE1882846FFF70AFFEC
:101B300013E02389A28861882846FFF70EFFE18819
:101B40002846FFF7FFFE23893A4631462846FFF72D
:101B500048FFE1882846FFF73BFFBDE8F0810A888F
:101B60004B881A438B881A43CB881A430B891A4334
:101B70004B891A438B891A43A0F8442070474FF6CB
:101B8000FF71818000210180C18041800172704716
:101B90000021018041808180C1800181418181815A
:101BA000C181704700210180418001218180002195
:101BB000C180018170470021018041808180C18006
:101BC000018141818181704721B1028842F0010287
:101BD000028004E002884FF6FE731A4002807047CC
:101BE00081B1B0F8442042F40042A0F844200FE054
:101BF000002C014000340140000400400008004077
:101C0000000C0040B0F84420C2F30E02A0F84420BB
:101C1000704710B51AB183890B43838104E083892F
:101C2000CC43A4B22340838110BD8182704741EA36
:101C30000203A0F84830704710B51AB183890B43EE
:101C4000838104E08389CC43A4B22340838110BD07
:101C500001894FF6F8721140018170470A46002150
:101C600001894FF68F73194011430181704730B5D8
:101C700004460D4629462046FFF7F0FF208940F034
:101C80000700208130BD2DE9F04104460D4616467F
:101C90001F46602D06D13B46012231462046FFF704
:101CA0005CFE05E03B46012231462046FFF799FEE7
:101CB00029462046FFF7D2FF208940F00700208107
:101CC000BDE8F08130B50C4600210189C9B21D067E
:101CD00042EA154525432943018130BD2DE9F041F4
:101CE00005460E4617469846002443463A46314676
:101CF0002846FFF7E7FF2C894FF6F870044044F0C0
:101D000007044FF68F70044044F070042C81BDE846
:101D1000F081F0B504460D4616461F463B46324656
:101D200029462046FFF7CEFF208940F480402081DD
:101D3000F0BD0185828270470A46002101884FF676
:101D40008F731940114301807047F0B50C4615465A
:101D50001E460021002200230189028B038C4FF6CE
:101D6000F877394021434FF6FC473A4040F20117DB
:101D70003A434FF6DD773B40370545EA17473B438B
:101D8000018102830384F0BD0A460021018B4FF6D6
:101D90008F7319401143018370470A460021018B5C
:101DA00048F6FF731940130641EA13410183704757
:101DB0000A460021818B4FF68F73194011438183AE
:101DC00070470A460021818B48F6FF7319401306BD
:101DD00041EA13418183704721B1028842F08002B9
:101DE000028004E002884FF67F731A400280704739
:101DF00021B1828842F00402828004E082884FF69A
:101E0000FB731A408280704721B1828842F0080239
:101E1000828004E082884FF6F7731A408280704710
:101E200021B1828842F00102828004E082884FF66C
:101E3000FE731A40828070470A460021018B4FF6DC
:101E4000F77319401143018370470A460021018B43
:101E50004FF2FF731940130641EA134101837047A3
:101E60000A460021818B4FF6F77319401143818395
:101E700070470A460021818B4FF2FF731940130609
:101E800041EA1341818370470A460021018B4FF6D6
:101E9000FB7319401143018370470A460021018BEF
:101EA0004FF6FF331940130641EA1341018370478F
:101EB0000A460021818B4FF6FB7319401143818341
:101EC00070470A460021818B4FF6FF3319401306F5
:101ED00041EA1341818370470A460021018B4FF686
:101EE0007F7319401143018370470A460021018B1B
:101EF000C1F30E01130641EA1341018370470A46FC
:101F00000021818B4FF67F73194011438183704705
:101F10000A460021818BC1F30E01130641EA1341E9
:101F2000818370470A460021018C4FF6FD731940EA
:101F30001143018470470A460021018C4FF6F77364
:101F400019401143018470470A460021018C4FF665
:101F5000DF731940130541EA1341018470470A46B3
:101F60000021018C4FF67F731940130541EA13419C
:101F7000018470470A460021018C4FF6FF53194037
:101F8000130641EA1341018470470A460021018C7F
:101F90004FF2FF731940130641EA13410184704761
:101FA0000A460021018C4DF6FF731940130741EAE0
:101FB00013410184704730B5002301248C40A3B243
:101FC000048CDD43ADB22C400484048C02FA01F58C
:101FD000ADB22C43048430BD30B5002304248C40C2
:101FE000A3B2048CDD43ADB22C400484048C02FA0D
:101FF00001F5ADB22C43048430BD70B5034600201A
:1020000000241846183001258D40ACB21D8CE643E3
:10201000B6B235401D8409B1082909D100EB610031
:10202000056825F0700505600568154305600CE03E
:102030000D1FADB200EB6500056825F4E0450560B5
:102040000568160645EA1645056070BD21B102888F
:1020500042F00202028004E002884FF6FD731A404B
:102060000280704721B1028842F00402028004E03D
:1020700002884FF6FB731A400280704721B18288B4
:1020800042F08002828004E082884FF67F731A401B
:102090008280704702884FF6F7731A4002800288E8
:1020A0000A430280704782884FF68F731A408280FD
:1020B00082880A438280704702894FF6F8731A407B
:1020C000028102890A430281704702894FF67F73B9
:1020D0001A40028102890A43028170478184704755
:1020E0008185704781867047018770478187704777
:1020F000A0F84010704702884FF6FF431A40028054
:1021000002880A43028070470146888E7047014664
:10211000088F70470146888F70470146B1F840002C
:1021200070470146888C70470146088D704702460B
:102130000020138A0B4201D0012000E000207047EC
:10214000CA430282704730B50246002000230024B3
:10215000158A05EA0103958905EA010413B10CB15A
:10216000012000E0002030BDCA4302827047000019
:1021700010B50446FC48844209D101218803FFF7C9
:10218000D1F800214FF48040FFF7CCF832E0F74857
:10219000844209D101214804FFF7D1F800214FF40E
:1021A0000030FFF7CCF825E0F148844209D1012145
:1021B0008804FFF7C4F800214FF48020FFF7BFF830
:1021C00018E0EC48844209D10121C804FFF7B7F8B0
:1021D00000214FF40020FFF7B2F80BE0E6488442FC
:1021E00008D101210805FFF7AAF800214FF480105B
:1021F000FFF7A5F810BD2DE9F04786B005460E465D
:102200000024A24600BFA1460027B08900B100BF4C
:102210002F462C8A4CF6FF700440F08804432C8231
:10222000AC894EF6F3100440B088318908437189B7
:1022300008430443AC81AC8A4FF6FF400440B089A8
:102240000443AC8201A8FEF7E6FFC748874202D1EB
:10225000DDF810A001E0DDF80CA0A88910F4004F13
:1022600008D00AEBCA0000EB0A1031684900B0FB45
:10227000F1F807E00AEBCA0000EB0A1031688900A8
:10228000B0FBF1F86420B8FBF0F0040120096421F0
:1022900001FB1089A88910F4004F08D0322000EB10
:1022A000C900B0FBF1F000F00700044308E0322061
:1022B00000EB09106421B0FBF1F000F00F000443C3
:1022C0002C8106B0BDE8F0874FF416510160002163
:1022D0008180C18001810C21418100218181704771
:1022E00010B502460020108A4FF2FF0318400B88F9
:1022F0004C8823438C882343CC8823431843108283
:1023000010BD0021018041808180C180704721B1D2
:10231000828942F40052828104E082894DF6FF7383
:102320001A4082817047F0B503460024002600253C
:102330000020A1F510676A3F00D100BF1846C1F325
:10234000421401F01F06012707FA06F5012C01D1FE
:102350000C3004E0022C01D1103000E014301AB12E
:1023600007682F43076002E00768AF430760F0BDCE
:1023700010B51AB1838A0B43838204E0838ACC436D
:10238000A4B22340838210BD028A4FF6F0731A4034
:102390000282028A0A430282704782894FF2FF73E7
:1023A0001A40828182890A438281704721B18289E1
:1023B00042F00202828104E082894FF6FD731A40E6
:1023C00082817047028A4FF6DF731A400282028AC6
:1023D0000A430282704721B1028A42F4804202829B
:1023E00004E0028A4BF6FF731A4002827047C1F381
:1023F00008028280704701468888C0F30800704751
:10240000818941F0010181817047028BD2B2028340
:10241000028B42EA012202837047028B02F47F4260
:102420000283028B0A430283704721B1828A42F001
:102430002002828204E0828A4FF6DF731A40828291
:10244000704721B1828A42F01002828204E0828ABF
:102450004FF6EF731A408282704721B1828A42F0B0
:102460000802828204E0828A4FF6F7731A40828261
:10247000704721B1828942F40042828103E082895F
:10248000C2F30E028281704721B1828A42F4006257
:10249000828204E0828A4FF2FF731A408282704780
:1024A000828A4FF6FB731A408282828A0A438282B2
:1024B000704721B1828A42F00202828204E0828A5D
:1024C0004FF6FD731A408282704702460020B1F534
:1024D000007F00D100BF13880B4201D0012000E033
:1024E0000020704701F40072B2F5007F00D100BFF8
:1024F000CA430280704770B50246002400230025BD
:102500000020A1F510666A3E00D100BFC1F342155C
:1025100001F01F03012606FA03F3012D02D196896B
:10252000334006E0022D02D1168A334001E0968A3C
:1025300033400C12012606FA04F41688344013B115
:102540000CB1012000E0002070BD10B50022002376
:10255000A1F510646A3C00D100BF0A120124944026
:10256000A3B2DC43048010BD0038014000440040A9
:1025700000480040004C00400050004031490143F9
:10258000314A1160704770B5002100230F22C478D2
:102590000CB32D4C246804F4E064C4F5E064210A13
:1025A000C1F10403CA40447804FA03F1847814406A
:1025B00021430901254C0678A155047804F01F0534
:1025C0000124AC4005786D114FF0E02606EB85053F
:1025D000C5F8004109E0047804F01F050124AC406F
:1025E0001B4D0678761145F8264070BD194A0A4001
:1025F0000243154B1B1F1A60704739B1124A121D56
:1026000012680243104B1B1D1A6006E00E4A121D91
:10261000126882430C4B1B1D1A607047042808D1B6
:102620004FF0E021096941F004014FF0E02211610F
:1026300007E04FF0E021096921F004014FF0E022AA
:10264000116170470000FA050CED00E000E400E0C5
:1026500080E100E080FFFF1F01684FF6FE7211402D
:1026600001600021016041608160C1608C49884245
:1026700008D18B490839496841F00F01884A083A66
:1026800051608AE086491431884208D1844908396A
:10269000496841F0F001824A083A51607DE0804982
:1026A0002831884208D17E490839496841F470616F
:1026B0007B4A083A516070E079493C31884208D140
:1026C00077490839496841F47041754A083A5160C0
:1026D00063E073495031884208D17149083949682B
:1026E00041F470216E4A083A516056E06C496431F9
:1026F000884208D16A490839496841F47001684A3A
:10270000083A516049E066497831884208D1644905
:102710000839496841F07061614A083A51603CE00B
:102720006049884206D1011F096841F00F01021F6C
:10273000116032E05B491431884208D15949091FC0
:10274000096841F0F001574A121F116025E0554910
:102750002831884208D15349091F096841F4706142
:10276000504A121F116018E04E493C31884208D18E
:102770004C49091F096841F470414A4A121F11600F
:102780000BE048495031884207D14649091F096882
:1027900041F47021434A121F1160704710B50022A6
:1027A000026847F6F0739A430C6A8B6823430C69FE
:1027B00023434C6923438C692343CC6923434C6AEC
:1027C00023438C6A23431A430260CB6843600B683F
:1027D00083604B68C36010BD00210160416081606F
:1027E000C160016141618161C161016241628162D7
:1027F000704721B1026842F00102026004E0026801
:102800004FF6FE731A40026070471AB103680B431B
:10281000036002E003688B430360704741607047C8
:102820000146486880B2704701460020002211F03E
:10283000805F03D01B4B083B1A6802E0184B083B33
:102840001A680A4201D0012000E00020704710F011
:10285000805F03D01349091F086002E0104908395E
:102860004860704701460020002211F0805F03D0CD
:102870000C4B083B1A6802E0094B083B1A680A42F5
:1028800001D0012000E00020704710F0805F03D0ED
:102890000449091F086002E001490839486070478F
:1028A000080002400804024010B50446F94884427A
:1028B00008D101214015FEF735FD00216015FEF716
:1028C00031FD17E0F448844208D101210015FEF7DC
:1028D00029FD00212015FEF725FD0BE0EF4884427D
:1028E00008D10121C803FEF71DFD00214FF400406F
:1028F000FEF718FD10BD30B50246002000235068D9
:10290000E74C20400D790C6844EA052420435060D0
:102910009068E44C2040D1E902542C434D7944EABC
:10292000450420439060D06A20F470000C7C641E43
:10293000E4B2234340EA0350D06230BD002101607D
:10294000017141718160C16001210174704721B141
:10295000826842F00102826003E0826822F0010294
:102960008260704721B1826842F48072826003E025
:10297000826822F480728260704710B50023CBB267
:102980001AB144681C43446002E044689C434460BC
:1029900010BD816841F00801816070470146002048
:1029A0008A6812F0080F01D0012000E00020704773
:1029B000816841F0040181607047014600208A6807
:1029C00012F0040F01D0012000E00020704721B177
:1029D000826842F4A002826003E0826822F4A002CE
:1029E00082607047014600208A6812F4800F01D08F
:1029F000012000E00020704710B50A4600210023A6
:102A0000416821F46041531E41EA4331416010BDE9
:102A100021B1426842F40062426003E0426822F45D
:102A2000006242607047F0B504460D460020002168
:102A3000092D11DDE068A5F10A0606EB4607072619
:102A400006FA07F18843A5F10A0606EB460603FAE3
:102A500006F10843E0600CE0206905EB4507072616
:102A600006FA07F1884305EB450603FA06F1084329
:102A70002061072A0FDA606B561E06EB86071F26B9
:102A800006FA07F18843561E06EB860605FA06F19C
:102A90000843606322E00D2A0FDA206BD61F06EB95
:102AA00086071F2606FA07F18843D61F06EB86061F
:102AB00005FA06F10843206310E0E06AA2F10D0672
:102AC00006EB86071F2606FA07F18843A2F10D06DA
:102AD00006EB860605FA06F10843E062F0BD21B177
:102AE000826842F48012826003E0826822F48012DD
:102AF000826070470146C86C80B2704765484C30B0
:102B00000068704721B1426842F48062426003E08D
:102B1000426822F480624260704721B1426842F408
:102B20008052426003E0426822F480524260704763
:102B30000A460021816821F4E04111438160704719
:102B400021B1826842F40042826003E0826822F48C
:102B500000428260704721B1826842F402128260B2
:102B600003E0826822F4021282607047014600206E
:102B70008A6812F4001F01D0012000E00020704795
:102B8000F0B504461546002000220026092911DD73
:102B9000E068A1F10A0707EB470C072707FA0CF2D8
:102BA0009043A1F10A0707EB470703FA07F2104326
:102BB000E0600CE0206901EB410C072707FA0CF2FA
:102BC000904301EB410703FA07F210432061A06B29
:102BD000C0F30156EF1C06F1010CA7EB0C0707EB45
:102BE000870C1F2707FA0CF29043EF1C06F1010C2B
:102BF000A7EB0C0707EB870701FA07F21043A06366
:102C0000F0BD10B50A4600210023816B21F440116C
:102C1000531E41EA0351816310BD10B500230346E2
:102C20000B441A6010BD02460023134601F1280030
:102C30000344186880B270470A46002141681A4B65
:102C400019401143416070474162826270470A46F1
:102C50000021416821F01F0111434160704740B1DC
:102C60000C490831096841F400010A4A0832116030
:102C700007E008490831096821F40001054A0832D3
:102C8000116070470246002013680B420ED00120ED
:102C90000DE000000024014000280140003C0140FC
:102CA000FFFEF0FFFDF7F1FFFFFD3FFF0020704743
:102CB000CA430260704770B502460020002300241A
:102CC0000B125568CEB205EA060415681D4202D003
:102CD0000CB1012000E0002070BD00220A12D34395
:102CE000036070472DE9F04705460C4616461F461F
:102CF000DDF820904FF000081CB1012C01DBF72C0F
:102D000002DD4FF0020859E0AA48047015B1012D08
:102D100042D120E0A848A9490860A948A94908600B
:102D2000A948AA490860AA48AA4908600020AA49F7
:102D30000860AA48AA490860AA48AB490860AB489D
:102D4000AB4908604B463A4631469A48007800F055
:102D5000FFFE804623E0A74898490860A6489949A5
:102D60000860A64899490860A5489A49086000206B
:102D700099490860A3489A490860A3489A4908609D
:102D8000A2489B4908604B463A463146894800783C
:102D900000F04EF9804602E04FF0020800BF00BF8D
:102DA000B8F1000F0AD101F085F810B94FF003080F
:102DB00004E0974805700120964908704046BDE838
:102DC000F08730B502460B46002A36DD7F2A34DC18
:102DD000F3B1002112E0904C04EBC10464682CB103
:102DE0008D4C04EBC10464689C4206D18A4C04F803
:102DF000312004EBC104636002E0491C1029EADBC6
:102E000000BF102901D0002400E00424204615E072
:102E100000210DE0804C14F83140944207D1002489
:102E20007D4D05F8314005EBC1056C6002E0491CA1
:102E30001029EFDB00BF002000E0022030BD10B5FC
:102E4000002474480078012806D16348006820B146
:102E500061480068804700E00624204610BD10B598
:102E600000246C480078012806D154480068804747
:102E700000206849087000E00624204610BD10B507
:102E80006448007838B94F4800688047012061499C
:102E90000870002406E05F480078012801D1002472
:102EA00000E00624204610BD38B5002559480078BA
:102EB00008B1062038BD684601F009F8012877D12D
:102EC0009DF8000030B1012805D0022818D0032851
:102ED0006DD16BE06BE0514A514952483D4B1B6844
:102EE000984705465DB94F480078324909788842CD
:102EF00002D04C48007810B9022000F0E0FF56E004
:102F00004748006800784849087001204749087020
:102F1000002417E0404810F8340000B914E03E489F
:102F200010F834004049097888420AD13A4800EB49
:102F3000C4003A4942683A48006890473B490870E3
:102F400002E0641C102CE5DB00BF3648007858B363
:102F500036480078C8B100203049088032480078EF
:102F600040F080012D4802880088401C2B4B1880BF
:102F70002B48006881542D48027818460188008843
:102F8000401C1880264800684254214800780128D7
:102F900000D100BF21480288214801680548007817
:102FA0000A4B1B689847054601E001E000BF00BFDF
:102FB00000207FE7ED0000209D3B0008F40000208A
:102FC000B33B0008F80000201D3C0008F000002082
:102FD000C33B0008FC00002000010020AF3C0008BB
:102FE000040100203B3D000808010020AF3D00081F
:102FF0000C0100206D300008833000080B31000800
:10300000B330000897310008E9320008D9330008CE
:10301000EE0000206000002064000020EA00002094
:10302000E4000020E8000020E9000020EC0000207F
:103030002DE9F04180460C4615461E4600270A2021
:10304000F6490870334607222946204600F07AFFE9
:10305000012801D0032706E044F6206001F016F8AD
:10306000012800D003273846BDE8F08110B50021C3
:10307000012000F03DFF0020E949087000F01FFF2B
:1030800010BD10B50021084600F032FF01F054F8E1
:1030900010BD10B50246002003E012F8014B2318C2
:1030A000D8B20B00A1F10104A1B2F6D14342D8B2CB
:1030B00010BD2DE9F04104460D4616460027D948BB
:1030C0000088FF2800DC04E09D22D7A1E0A001F0E9
:1030D0005FF8D4480088032813DBD2480188E6480B
:1030E0000068FFF7D6FF60B9E348006800782070F9
:1030F000CC480088801E3080DF480068401C286073
:1031000000E005273846BDE8F0812DE9F04104468E
:103110000D4616464FF00008C148007818BB681EDF
:10312000D64908600120D6490880D4480068047058
:10313000084600883044088008460188CF48006867
:10314000FFF7A7FF0746CE490888411CCC4A1180EB
:10315000C94909680F540120CA490870012100209B
:1031600000F0C6FE01E04FF005084046BDE8F081E2
:103170000146302905DB392903DCA1F13000C0B25A
:103180007047412905DB462903DCA1F13700C0B2B5
:10319000F6E7FF20F4E738B50025BA48007800B913
:1031A00004E0E422A0A1B8A000F0F2FF684600F01D
:1031B00034FF9B48007800286ED0012802D00228F6
:1031C00079D146E000F0A5FF9DF800003A2805D12E
:1031D0000020B44908709349088039E09DF8000048
:1031E0000D2803D102208E49087031E09DF80000BF
:1031F000FFF7BEFF0446AB48007810B1012826D186
:1032000014E088480088FF280ADC2007000E9A494D
:103210000968844A128888540120A249087016E07F
:1032200000207F49087000F087FF10E0924909688C
:103230007C4A1288881801782143017079480088F7
:10324000401C7849088000209649087000BF00BFE4
:1032500031E09DF8000071490978884209D100F0F9
:103260006BFF00206E490870012000F028FE054623
:1032700011E09DF800003A280AD100208949087021
:103280006849088001206649087000F042FF02E0AA
:103290000020634908700EE09DF800003A2809D12B
:1032A00000F037FF00205F4908807E490870012048
:1032B0005B49087000BF00BF284638BD10B5044602
:1032C000092C03DC04F13000C0B210BD0A2C05DB70
:1032D0000F2C03DC04F13700C0B2F6E740F2D11244
:1032E00051A171A000F054FF70B500254C48007842
:1032F00000B905E04FF4A8724BA16CA000F048FFA4
:1033000060480078052864D2DFE800F05E030E47CD
:103310004F003A24204600F078FE022059490870F8
:1033200000206049087054E05548008800282DDDD1
:103330005C48007810B1012827D10DE04F49096899
:1033400009780811FFF7BAFF0446204600F05DFE39
:1033500001205449087018E048490968097801F0CB
:103360000F00FFF7ABFF0446204600F04EFE434837
:103370000068401C4149086000204A4908704048E4
:103380000088401E3E49088000BF05E00D2000F087
:103390003CFE03203B4908701BE02048007800F009
:1033A00034FE04203749087013E0002035490870C6
:1033B000032000F084FD05460021012000F098FD67
:1033C00000203049087004E00021012000F090FD49
:1033D00000BF00BF284670BD10B511480078012815
:1033E00002D0022805D100E000BF00200C4908707F
:1033F0000FE00B480078012803D009480078022824
:1034000000D105E04FF4D47207A12F4800F0C0FEB0
:1034100000BF00BF00F090FE002010BD2B01002077
:103420001D0100201E0100202E2E5C467265654D98
:103430006F646275735C6D6F646275735C617363F6
:1034400069695C6D6261736369692E6300000000E5
:103450007573526376427566666572506F73203C71
:10346000204D425F5345525F5044555F53495A4582
:103470005F4D415800000000180100202401002089
:10348000280100201C01002065536E645374617490
:1034900065203D3D2053544154455F54585F494495
:1034A0004C4500002001002030000000655263768A
:1034B0005374617465203D3D2053544154455F521F
:1034C000585F49444C450000344400082DE9F05F42
:1034D00006460D464FF0000B2888052844D1707829
:1034E0004FEA002AB07840EA0A0AF07804023079FC
:1034F0000443012C35DBB4F5FA6F32DA374600208D
:103500002880012007F8010B2888401C288014F02F
:10351000070F08D02046E11704EB5171C910491C70
:1035200001F0FF0805E02046E11704EB5171C1F3FB
:10353000C70807F8018B2888401C288000232246F2
:1035400051463846FCF7C5FE8146B9F1000F04D05C
:10355000484600F0B2FA834608E0288840442880B4
:1035600004E04FF0030B01E04FF0030B5846BDE8B9
:10357000F09F2DE9F84304460E464FF000083088CE
:10358000052827D160780702A07807432079F0B991
:10359000E078FF2801D0E078C8B900208DF801005C
:1035A000E078FF2803D101208DF8000002E0002020
:1035B0008DF8000001231A4639466846FCF789FE5B
:1035C00005464DB1284600F078FA804604E04FF0F9
:1035D000030801E04FF003084046BDE8F8832DE9F9
:1035E000F05F05460E464FF0000B3088052838DDA9
:1035F00068784FEA0029A87840EA0909E8780402C7
:103600002879044395F805A014F0070F07D0204649
:10361000E11704EB5171C910491CCFB205E02046F7
:10362000E11704EB5171C1F3C707012C16DBB4F5A8
:10363000F66F13DC574511D1012322464946A81DD8
:10364000FCF747FE8046B8F1000F04D0404600F07A
:1036500034FA834607E00520308004E04FF0030B86
:1036600001E04FF0030B5846BDE8F09F2DE9F05FF5
:1036700006460D464FF0000B2888052843D1707888
:103680004FEA002AB07840EA0A0AF078040230795A
:103690000443012C34DBB4F5FA6F31DA37460020ED
:1036A0002880022007F8010B2888401C288014F08D
:1036B000070F08D02046E11704EB5171C910491CCF
:1036C00001F0FF0805E02046E11704EB5171C1F35A
:1036D000C70807F8018B2888401C288022465146DD
:1036E0003846FCF73FFE8146B9F1000F04D048464A
:1036F00000F0E3F9834608E028884044288004E08D
:103700004FF0030B01E04FF0030B5846BDE8F09F6C
:103710002DE9F04104460E464FF000083088052898
:1037200010D160780702A078074301231A46394672
:10373000E01CFCF790FD054635B1284600F0BDF9C8
:10374000804601E04FF003084046BDE8F0812DE9D6
:10375000F04704460E464FF0000A3088062826DB64
:1037600060784FEA0028A07840EA0808E07805026F
:103770002079054394F80590012D15DB782D13DC95
:103780006806000E48450FD101232A464146A01D78
:10379000FCF761FD074627B1384600F08EF98246F6
:1037A00007E00520308004E04FF0030A01E04FF00D
:1037B000030A5046BDE8F0872DE9F04705460C4660
:1037C0004FF0000A2088052833D168784FEA002995
:1037D000A87840EA0909E87806022E79012E25DB4F
:1037E0007D2E23DC2F4600202080032007F8010BCC
:1037F0002088401C20807006000E07F8010B2088EE
:10380000401C20800023324649463846FCF723FD01
:103810008046B8F1000F04D0404600F04EF98246D1
:1038200009E0208800EB4600208004E04FF0030A06
:1038300001E04FF0030A5046BDE8F0872DE9FC5F38
:1038400004460D460020009028880A285DDB607839
:103850004FEA002AA07840EA0A0A0AF101001FFA9A
:1038600080FAE07806022079064360794FEA002B5F
:10387000A07940EA0B0B0BF101001FFA80FBE07905
:103880000702207A0743607A0190012E3BDB7D2EF0
:1038900039DC012F37DB792F35DC79000198814243
:1038A00031D101233A46594604F10A00FCF7D3FC12
:1038B0008146B9F1000F1ED1A046002028801720B4
:1038C00008F8010B2888401C28807006000E08F8B4
:1038D000010B2888401C2880002332465146404670
:1038E000FCF7B9FC8146B9F1000F04D12888022108
:1038F00001FB06002880B9F1000F06D0484600F011
:10390000DCF8009001E0032000900098BDE8FC9FE7
:103910002DE9F04705460C464FF0000A208805289F
:1039200033D168784FEA0029A87840EA0909E87895
:10393000060228790643012E24DB7D2E22DA2F464B
:1039400000202080042007F8010B2088401C2080E4
:103950007006000E07F8010B2088401C20803246BC
:1039600049463846FCF755FC8046B8F1000F04D0B4
:10397000404600F0A2F8824609E0208800EB4600AD
:10398000208004E04FF0030A01E04FF0030A5046A4
:10399000BDE8F0872DE9F04105460E4617461C4666
:1039A0004FF00008A01C202826DA00201C490880BF
:1039B000084601880088401C194A1080194845545F
:1039C0000EB1FF2200E00022154801880088401C4B
:1039D000134B188013484254002C0FDD01461A4641
:1039E000128888182246394600F010FC0C480088DE
:1039F00020440B49088001E04FF004084046BDE830
:103A0000F08170B505460C46054802880549681CDA
:103A100000F0FCFB02480088401C2080002070BDA4
:103A20002C010020D20100202DE9FF5F05460E4643
:103A30009046DDF80CB0B8F1080F00DC04E0382245
:103A400026A131A000F0A4FBF408A6EBC4001FFAE5
:103A500080FA0BFA0AF01FFA80FB012000FA08F046
:103A6000401E1FFA80F9A6EBC40009FA00F01FFA05
:103A700080F92F5D601C285C47EA002727EA0900CF
:103A800040EA0B072F553912601C2954BDE8FF9FEF
:103A9000F0B503460C461546E208A4EBC20087B217
:103AA0000120A840401E86B2995C501C185C41EA77
:103AB000002139413140C8B2F0BD014621B1012990
:103AC00004D0072906D103E0002005E0022003E02E
:103AD000062001E0042000BF00BF70472E2E5C4688
:103AE0007265654D6F646275735C6D6F646275734A
:103AF0005C66756E6374696F6E735C6D6275746914
:103B00006C732E630000000075634E42697473206D
:103B10003C3D20380000000070B502460C46FF25F1
:103B2000FF2309E012F8010B80EA03010648405C1C
:103B300080EA05030548455C2000A4F10106B4B203
:103B4000F0D143EA052070BD7844000878450008AC
:103B50002DE9F04781460E4614461F464FF00008F7
:103B60003B4608222146304600F0ECF9012802D0FD
:103B70004FF003080FE0B4F5964F01D9232503E079
:103B80006000A349B1FBF0F5A8B200F07FFA01286C
:103B900001D04FF003084046BDE8F08710B5002083
:103BA0009C4908700021012000F0A2F900F0B1FA50
:103BB00010BD10B50021084600F09AF900F0BCFADB
:103BC00010BD2DE9F04104460D4616464FF00008A1
:103BD000002791480088FF2800DC04E0A7228FA17D
:103BE00097A000F0D5FA8C480088042812DB8A4898
:103BF00001889D48FFF790FF60B99B4800782070CE
:103C000085480088C01E30809748401C28604FF0CF
:103C1000010800E005273846BDE8F0812DE9F041B4
:103C200005460E4617464FF000087A4800780128EE
:103C300038D1701E8D49086001208D4908808B485D
:103C400000680570084600883844088008460188E6
:103C500086480068FFF760FF044685490888411CD4
:103C6000834B198080490C54221219460888411C44
:103C700019807D490A5401207E4908707B490968F2
:103C8000087800F0C2F979480068401C774908605C
:103C900077480088401E764908800121002000F006
:103CA00027F901E04FF005084046BDE8F08138B53E
:103CB00000247048007800B904E0F92257A16EA0F2
:103CC00000F066FA684600F0A8F95248007830B172
:103CD00001280AD0022819D003282BD102E000F0D5
:103CE00018FA27E000F015FA24E000204A4908807D
:103CF0009DF800200888411C474B19805A490A54F6
:103D000002204449087000F004FA13E04248008899
:103D1000FF2809DC9DF800203F490888411C3E4BE4
:103D2000198051490A5402E003203A49087000F012
:103D3000F0F900BF00BF204638BD10B5002435485B
:103D40000078012800D105E040F2391233A151A0DA
:103D500000F01EFA4748007810B1012824D104E091
:103D60000021012000F0C4F81EE04148008878B12D
:103D70003E490968087800F048F93C480068401C52
:103D80003A4908603A480088401E394908800AE0EC
:103D9000032000F094F804460021012000F0A8F868
:103DA00000203449087000BF00BF204610BD10B588
:103DB00000241848007820B1022807D003280BD12E
:103DC00009E0002000F07BF8044618E0012000F034
:103DD00076F8044613E012E00E48007838B10D483A
:103DE0000078022803D00B480078032800D105E0B2
:103DF00040F27B1209A12E4800F0CAF900BF00BFB3
:103E000000F09AF9012003490870204610BD000017
:103E1000A07F1700310100203A0100202E2E5C46C1
:103E20007265654D6F646275735C6D6F6462757306
:103E30005C7274755C6D627274752E6300000000B4
:103E40007573526376427566666572506F73203C77
:103E5000204D425F5345525F5044555F53495A4588
:103E60005F4D415800000000F201002034010020A5
:103E7000380100203001002065536E645374617472
:103E800065203D3D2053544154455F54585F49449B
:103E90004C450000655263765374617465203D3D66
:103EA0002053544154455F52585F49444C450000EB
:103EB0007846000800200C49087001207047014630
:103EC0000120094A1070094801700120704701461D
:103ED0000020054A127832B1044A12780A70002292
:103EE000014B1A70012070473D0100203C01002069
:103EF00070B505460C465DB1012240F225515F4880
:103F0000FEF711FA4FF480515D48FCF7EAFF0AE032
:103F1000002240F225515948FEF705FA4FF480512E
:103F20005748FCF7DCFF34B1012240F226615348C8
:103F3000FEF7F9F905E0002240F226614F48FEF74E
:103F4000F2F970BDF0B587B005460C4616461F461F
:103F5000012144F20400FDF7CBF94FF40070ADF8F5
:103F6000180003208DF81A0018208DF81B0006A9F0
:103F70004348FCF709FF4FF48060ADF818000320B8
:103F80008DF81A0004208DF81B0006A93C48FCF7A8
:103F9000FBFE02940020ADF80C00ADF80E00ADF869
:103FA0001000ADF814000C20ADF8120002A933483F
:103FB000FEF721F901213148FEF7A9F94FF4C0605D
:103FC000FEF7DCFA25208DF8040000208DF80500AE
:103FD00001208DF806008DF8070001A8FEF7D3FA3E
:103FE00001210420FDF784F94FF48050ADF818004A
:103FF00003208DF81A0010208DF81B0006A9204818
:10400000FCF7C2FE012007B0F0BD10B50446214602
:104010001A48FEF7ECF9012010BD10B50446174808
:10402000FEF7E9F92070012010BD10B515480068B1
:10403000804710BD10B514480068804710BD10B50A
:1040400040F225510D48FEF756FA012806D1FFF738
:10405000F1FF40F225510948FEF777FA40F2266158
:104060000648FEF748FA012806D1FFF7DEFF40F2C6
:1040700026610248FEF769FA10BD000000380140D1
:104080000008014008010020040100207FB504461B
:10409000002501210420FDF738F93A48006844F66C
:1040A0002061B0FBF1F0401E85B2ADF80840ADF8DC
:1040B00004500020ADF80A00ADF8060001A932480E
:1040C000FDF752FA01213048FDF786FE4FF4C0603B
:1040D000FEF754FA1E208DF8000000208DF8010034
:1040E00002208DF8020001208DF803006846FEF7DB
:1040F0004AFA01212448FEF737F80022012122481C
:10410000FDF787FD00212048FDF75EFD012004B08A
:1041100070BD10B501211C48FEF726F8012211469A
:104120001948FDF776FD00211748FDF7D7FF01215B
:104130001548FDF749FD10BD10B501211248FEF7E5
:1041400013F8002201211048FDF763FD00210E48FD
:10415000FDF7C4FF00210C48FDF736FD10BD10B57A
:104160000A480068804710BD10B501210648FDF7D8
:10417000EAFF28B101210448FDF7F6FFFFF7EFFF42
:1041800010BD00002C000020000800400C010020A1
:104190000EB506460D46144612A000F087F83046CC
:1041A00000F084F815A000F081F8284600F07EF8B1
:1041B00014A000F07BF800218DF80B100A210DF1FE
:1041C0000A008DF80A1007E0224694FBF1F401FB87
:1041D0001422303200F8012D002CF5DC00F066F8D6
:1041E00000F05CF82A2A2A20617373657274696F83
:1041F0006E206661696C65643A2000002C20666957
:104200006C6520002C206C696E652000032A40F24A
:10421000308010F0030C00F0158011F8013BBCF168
:10422000020F624498BF11F801CB00F8013B38BF80
:1042300011F8013BA2F1040298BF00F801CB38BF8E
:1042400000F8013B11F0030300F03A80083AC0F097
:10425000088051F8043B083A51F804CBA0E8081054
:10426000F5E7121D5CBF51F8043B40F8043BAFF387
:104270000080D20724BF11F8013B11F801CB48BFE1
:1042800011F8012B24BF00F8013B00F801CB48BF17
:1042900000F8012B7047704770477047002000F00E
:1042A0004FF8FBF781FF012000F044F810B50446F9
:1042B00002E0641C00F036F820780028F9D110BD27
:1042C00010B5203AC0F00B80B1E81850203AA0E8B1
:1042D0001850B1E81850A0E81850BFF4F5AF5FEAE5
:1042E000027C24BFB1E81850A0E8185044BF18C998
:1042F00018C0BDE810405FEA827C24BF51F8043B3F
:1043000040F8043B08BF7047D20728BF31F8023B92
:1043100048BF11F8012B28BF20F8023B48BF00F826
:10432000012B704708B569468DF800000320ABBE2D
:1043300008BD000001491820ABBEFEE726000200C0
:1043400010B500F035F8BDE8104000F02CB870470B
:10435000754600F045F8AE4605006946534620F024
:104360000700854618B020B5FCF79CFCBDE820404E
:104370004FF000064FF000074FF000084FF0000B21
:1043800021F00701AC46ACE8C009ACE8C009ACE8D4
:10439000C009ACE8C0098D4670470446AFF3008001
:1043A0002046FBF70CFF002801D0FFF7C3BF704782
:1043B00010B5002102A000F017F8012010BD000088
:1043C000534947414252543A2041626E6F726D61C7
:1043D0006C207465726D696E6174696F6E000000A7
:1043E00000487047F402002070B505460C460A20CC
:1043F00000E06D1CFFF796FF35B128780028F8D152
:1044000002E0641CFFF78EFF14B120780028F8D179
:10441000BDE870400A20FFF785BF000000487047E4
:10442000F802002010B5FFF7F9FF4FF0000101601E
:1044300010BD0000282065526376537461746520B6
:104440003D3D2053544154455F52585F52435620DE
:1044500029207C7C20282065526376537461746522
:10446000203D3D2053544154455F52585F574149C8
:10447000545F454F4620290000C1814001C0804162
:1044800001C0804100C1814001C0804100C1814024
:1044900000C1814001C0804101C0804100C1814014
:1044A00000C1814001C0804100C1814001C0804104
:1044B00001C0804100C1814001C0804100C18140F4
:1044C00000C1814001C0804100C1814001C08041E4
:1044D00001C0804100C1814000C1814001C08041D4
:1044E00001C0804100C1814001C0804100C18140C4
:1044F00000C1814001C0804101C0804100C18140B4
:1045000000C1814001C0804100C1814001C08041A3
:1045100001C0804100C1814000C1814001C0804193
:1045200001C0804100C1814001C0804100C1814083
:1045300000C1814001C0804100C1814001C0804173
:1045400001C0804100C1814001C0804100C1814063
:1045500000C1814001C0804101C0804100C1814053
:1045600000C1814001C0804100C1814001C0804143
:1045700001C0804100C1814000C0C101C30302C22B
:10458000C60607C705C5C404CC0C0DCD0FCFCE0E93
:104590000ACACB0BC90908C8D81819D91BDBDA1A03
:1045A0001EDEDF1FDD1D1CDC14D4D515D71716D673
:1045B000D21213D311D1D010F03031F133F3F232E3
:1045C00036F6F737F53534F43CFCFD3DFF3F3EFE53
:1045D000FA3A3BFB39F9F83828E8E929EB2B2AEAC3
:1045E000EE2E2FEF2DEDEC2CE42425E527E7E62633
:1045F00022E2E323E12120E0A06061A163A3A262A3
:1046000066A6A767A56564A46CACAD6DAF6F6EAE12
:10461000AA6A6BAB69A9A86878B8B979BB7B7ABA82
:10462000BE7E7FBF7DBDBC7CB47475B577B7B676F2
:1046300072B2B373B17170B0509091519353529262
:1046400096565797559594549C5C5D9D5F9F9E5ED2
:104650005A9A9B5B99595898884849894B8B8A4A42
:104660004E8E8F4F8D4D4C8C4484854587474686B2
:10467000824243834181804028206552637653748F
:10468000617465203D3D2053544154455F52585F4D
:10469000494E49542029207C7C202820655263768D
:1046A0005374617465203D3D2053544154455F521D
:1046B000585F5243562029207C7C20282065526375
:1046C000765374617465203D3D2053544154455FD9
:1046D00052585F4552524F5220290000FC460008B4
:1046E0000000002040010000280100087847000871
:1046F0004001002018080000840100081201120285
:104700001203120412051206120742081210122098
:10471000123012401250126012701280929084A2D5
:104720004A04000910010203040607080929186950
:104730001C360204060802321113033A2A083D13FC
:10474000113933080313B9373308101A4F082A06F2
:104750001819083217133D3833080113CD343308C4
:104760000513733533080F1ADF08294C4B6D36A536
:08477000016013F20102242094
:04000005080000ED02
:00000001FF
